{
  "contractName": "MyContractUpgraded",
  "abi": [
    {
      "inputs": [],
      "name": "addrProviderLP",
      "outputs": [
        {
          "internalType": "address",
          "name": "",
          "type": "address"
        }
      ],
      "stateMutability": "view",
      "type": "function"
    },
    {
      "inputs": [],
      "name": "owner",
      "outputs": [
        {
          "internalType": "address",
          "name": "",
          "type": "address"
        }
      ],
      "stateMutability": "view",
      "type": "function"
    },
    {
      "inputs": [
        {
          "internalType": "address",
          "name": "_addressProvider",
          "type": "address"
        }
      ],
      "name": "initialize",
      "outputs": [],
      "stateMutability": "nonpayable",
      "type": "function"
    },
    {
      "inputs": [
        {
          "internalType": "address",
          "name": "_erc20Contract",
          "type": "address"
        },
        {
          "internalType": "uint256",
          "name": "_amount",
          "type": "uint256"
        }
      ],
      "name": "deposit",
      "outputs": [
        {
          "internalType": "bool",
          "name": "success",
          "type": "bool"
        }
      ],
      "stateMutability": "nonpayable",
      "type": "function"
    },
    {
      "inputs": [
        {
          "internalType": "address",
          "name": "_erc20Contract",
          "type": "address"
        },
        {
          "internalType": "uint256",
          "name": "_amount",
          "type": "uint256"
        }
      ],
      "name": "withdraw",
      "outputs": [
        {
          "internalType": "uint256",
          "name": "amountWithdrawn",
          "type": "uint256"
        }
      ],
      "stateMutability": "nonpayable",
      "type": "function"
    },
    {
      "inputs": [],
      "name": "checkCollateralValueInEth",
      "outputs": [
        {
          "internalType": "uint256",
          "name": "amountInEth",
          "type": "uint256"
        }
      ],
      "stateMutability": "view",
      "type": "function"
    },
    {
      "inputs": [],
      "name": "paused",
      "outputs": [
        {
          "internalType": "bool",
          "name": "",
          "type": "bool"
        }
      ],
      "stateMutability": "pure",
      "type": "function"
    }
  ],
  "bytecode": "0x608060405234801561001057600080fd5b50611432806100206000396000f3fe608060405234801561001057600080fd5b506004361061007d5760003560e01c80638da5cb5b1161005b5780638da5cb5b146100ee578063c4d66de81461010c578063eadf8f2c14610128578063f3fef3a3146101465761007d565b806347e7ef24146100825780635c975abb146100b25780637cc7f5df146100d0575b600080fd5b61009c60048036036100979190810190610ea2565b610176565b6040516100a991906111fc565b60405180910390f35b6100ba6103e1565b6040516100c791906111fc565b60405180910390f35b6100d86103e9565b6040516100e59190611277565b60405180910390f35b6100f66104e5565b6040516101039190611105565b60405180910390f35b61012660048036036101219190810190610e50565b61050b565b005b6101306107ab565b60405161013d9190611105565b60405180910390f35b610160600480360361015b9190810190610ea2565b6107d1565b60405161016d9190611277565b60405180910390f35b60008273ffffffffffffffffffffffffffffffffffffffff1663095ea7b3600360009054906101000a900473ffffffffffffffffffffffffffffffffffffffff16846040518363ffffffff1660e01b81526004016101d5929190611157565b602060405180830381600087803b1580156101ef57600080fd5b505af1158015610203573d6000803e3d6000fd5b505050506040513d601f19601f820116820180604052506102279190810190610ede565b90506001151581151514610270576040517f08c379a000000000000000000000000000000000000000000000000000000000815260040161026790611217565b60405180910390fd5b8273ffffffffffffffffffffffffffffffffffffffff166323b872dd600260009054906101000a900473ffffffffffffffffffffffffffffffffffffffff1630856040518463ffffffff1660e01b81526004016102cf93929190611120565b602060405180830381600087803b1580156102e957600080fd5b505af11580156102fd573d6000803e3d6000fd5b505050506040513d601f19601f820116820180604052506103219190810190610ede565b50600160009054906101000a900473ffffffffffffffffffffffffffffffffffffffff1673ffffffffffffffffffffffffffffffffffffffff1663e8eda9df8484600260009054906101000a900473ffffffffffffffffffffffffffffffffffffffff1660006040518563ffffffff1660e01b81526004016103a694939291906111b7565b600060405180830381600087803b1580156103c057600080fd5b505af11580156103d4573d6000803e3d6000fd5b5050505080905092915050565b600080905090565b6000806000806000806000600160009054906101000a900473ffffffffffffffffffffffffffffffffffffffff1673ffffffffffffffffffffffffffffffffffffffff1663bf92857c600260009054906101000a900473ffffffffffffffffffffffffffffffffffffffff166040518263ffffffff1660e01b81526004016104719190611105565b60c06040518083038186803b15801561048957600080fd5b505afa15801561049d573d6000803e3d6000fd5b505050506040513d601f19601f820116820180604052506104c19190810190610f5a565b809650819750829850839950849a50859b5050505050505085965050505050505090565b600260009054906101000a900473ffffffffffffffffffffffffffffffffffffffff1681565b600060019054906101000a900460ff168061053257506000809054906101000a900460ff16155b610571576040517f08c379a000000000000000000000000000000000000000000000000000000000815260040161056890611237565b60405180910390fd5b60008060019054906101000a900460ff1615905080156105c1576001600060016101000a81548160ff02191690831515021790555060016000806101000a81548160ff0219169083151502179055505b81600060026101000a81548173ffffffffffffffffffffffffffffffffffffffff021916908373ffffffffffffffffffffffffffffffffffffffff160217905550600060029054906101000a900473ffffffffffffffffffffffffffffffffffffffff1673ffffffffffffffffffffffffffffffffffffffff16630261bf8b6040518163ffffffff1660e01b815260040160206040518083038186803b15801561066a57600080fd5b505afa15801561067e573d6000803e3d6000fd5b505050506040513d601f19601f820116820180604052506106a29190810190610e79565b600360006101000a81548173ffffffffffffffffffffffffffffffffffffffff021916908373ffffffffffffffffffffffffffffffffffffffff160217905550600360009054906101000a900473ffffffffffffffffffffffffffffffffffffffff16600160006101000a81548173ffffffffffffffffffffffffffffffffffffffff021916908373ffffffffffffffffffffffffffffffffffffffff16021790555033600260006101000a81548173ffffffffffffffffffffffffffffffffffffffff021916908373ffffffffffffffffffffffffffffffffffffffff16021790555080156107a75760008060016101000a81548160ff0219169083151502179055505b5050565b600360009054906101000a900473ffffffffffffffffffffffffffffffffffffffff1681565b60006107db610b1c565b600160009054906101000a900473ffffffffffffffffffffffffffffffffffffffff1673ffffffffffffffffffffffffffffffffffffffff166335ea6a75856040518263ffffffff1660e01b81526004016108369190611105565b6101806040518083038186803b15801561084f57600080fd5b505afa158015610863573d6000803e3d6000fd5b505050506040513d601f19601f820116820180604052506108879190810190610f07565b90508060e0015173ffffffffffffffffffffffffffffffffffffffff166323b872dd600260009054906101000a900473ffffffffffffffffffffffffffffffffffffffff1630866040518463ffffffff1660e01b81526004016108ec93929190611120565b602060405180830381600087803b15801561090657600080fd5b505af115801561091a573d6000803e3d6000fd5b505050506040513d601f19601f8201168201806040525061093e9190810190610ede565b5060008160e0015173ffffffffffffffffffffffffffffffffffffffff1663095ea7b3600360009054906101000a900473ffffffffffffffffffffffffffffffffffffffff16866040518363ffffffff1660e01b81526004016109a2929190611157565b602060405180830381600087803b1580156109bc57600080fd5b505af11580156109d0573d6000803e3d6000fd5b505050506040513d601f19601f820116820180604052506109f49190810190610ede565b90506001151581151514610a3d576040517f08c379a0000000000000000000000000000000000000000000000000000000008152600401610a3490611257565b60405180910390fd5b600160009054906101000a900473ffffffffffffffffffffffffffffffffffffffff1673ffffffffffffffffffffffffffffffffffffffff166369328dec8686600260009054906101000a900473ffffffffffffffffffffffffffffffffffffffff166040518463ffffffff1660e01b8152600401610abe93929190611180565b602060405180830381600087803b158015610ad857600080fd5b505af1158015610aec573d6000803e3d6000fd5b505050506040513d601f19601f82011682018060405250610b109190810190610f31565b50839250505092915050565b604051806101800160405280610b30610c3f565b815260200160006fffffffffffffffffffffffffffffffff16815260200160006fffffffffffffffffffffffffffffffff16815260200160006fffffffffffffffffffffffffffffffff16815260200160006fffffffffffffffffffffffffffffffff16815260200160006fffffffffffffffffffffffffffffffff168152602001600064ffffffffff168152602001600073ffffffffffffffffffffffffffffffffffffffff168152602001600073ffffffffffffffffffffffffffffffffffffffff168152602001600073ffffffffffffffffffffffffffffffffffffffff168152602001600073ffffffffffffffffffffffffffffffffffffffff168152602001600060ff1681525090565b6040518060200160405280600081525090565b600081359050610c6181611372565b92915050565b600081519050610c7681611372565b92915050565b600081519050610c8b81611389565b92915050565b600060208284031215610ca357600080fd5b610cad6020611292565b90506000610cbd84828501610e11565b60008301525092915050565b60006101808284031215610cdc57600080fd5b610ce7610180611292565b90506000610cf784828501610c91565b6000830152506020610d0b84828501610de7565b6020830152506040610d1f84828501610de7565b6040830152506060610d3384828501610de7565b6060830152506080610d4784828501610de7565b60808301525060a0610d5b84828501610de7565b60a08301525060c0610d6f84828501610e26565b60c08301525060e0610d8384828501610c67565b60e083015250610100610d9884828501610c67565b61010083015250610120610dae84828501610c67565b61012083015250610140610dc484828501610c67565b61014083015250610160610dda84828501610e3b565b6101608301525092915050565b600081519050610df6816113a0565b92915050565b600081359050610e0b816113b7565b92915050565b600081519050610e20816113b7565b92915050565b600081519050610e35816113ce565b92915050565b600081519050610e4a816113e5565b92915050565b600060208284031215610e6257600080fd5b6000610e7084828501610c52565b91505092915050565b600060208284031215610e8b57600080fd5b6000610e9984828501610c67565b91505092915050565b60008060408385031215610eb557600080fd5b6000610ec385828601610c52565b9250506020610ed485828601610dfc565b9150509250929050565b600060208284031215610ef057600080fd5b6000610efe84828501610c7c565b91505092915050565b60006101808284031215610f1a57600080fd5b6000610f2884828501610cc9565b91505092915050565b600060208284031215610f4357600080fd5b6000610f5184828501610e11565b91505092915050565b60008060008060008060c08789031215610f7357600080fd5b6000610f8189828a01610e11565b9650506020610f9289828a01610e11565b9550506040610fa389828a01610e11565b9450506060610fb489828a01610e11565b9350506080610fc589828a01610e11565b92505060a0610fd689828a01610e11565b9150509295509295509295565b610fec816112d0565b82525050565b610ffb816112e2565b82525050565b61100a81611360565b82525050565b600061101d600e836112bf565b91507f4465706f736974204661696c65640000000000000000000000000000000000006000830152602082019050919050565b600061105d602e836112bf565b91507f496e697469616c697a61626c653a20636f6e747261637420697320616c72656160008301527f647920696e697469616c697a65640000000000000000000000000000000000006020830152604082019050919050565b60006110c36011836112bf565b91507f5769746864726177616c204661696c65640000000000000000000000000000006000830152602082019050919050565b6110ff81611338565b82525050565b600060208201905061111a6000830184610fe3565b92915050565b60006060820190506111356000830186610fe3565b6111426020830185610fe3565b61114f60408301846110f6565b949350505050565b600060408201905061116c6000830185610fe3565b61117960208301846110f6565b9392505050565b60006060820190506111956000830186610fe3565b6111a260208301856110f6565b6111af6040830184610fe3565b949350505050565b60006080820190506111cc6000830187610fe3565b6111d960208301866110f6565b6111e66040830185610fe3565b6111f36060830184611001565b95945050505050565b60006020820190506112116000830184610ff2565b92915050565b6000602082019050818103600083015261123081611010565b9050919050565b6000602082019050818103600083015261125081611050565b9050919050565b60006020820190508181036000830152611270816110b6565b9050919050565b600060208201905061128c60008301846110f6565b92915050565b6000604051905081810181811067ffffffffffffffff821117156112b557600080fd5b8060405250919050565b600082825260208201905092915050565b60006112db82611318565b9050919050565b60008115159050919050565b60006fffffffffffffffffffffffffffffffff82169050919050565b600061ffff82169050919050565b600073ffffffffffffffffffffffffffffffffffffffff82169050919050565b6000819050919050565b600064ffffffffff82169050919050565b600060ff82169050919050565b600061136b8261130a565b9050919050565b61137b816112d0565b811461138657600080fd5b50565b611392816112e2565b811461139d57600080fd5b50565b6113a9816112ee565b81146113b457600080fd5b50565b6113c081611338565b81146113cb57600080fd5b50565b6113d781611342565b81146113e257600080fd5b50565b6113ee81611353565b81146113f957600080fd5b5056fea2646970667358221220657945ca44247e4905e0ec7aabf5a8bb97db779b69deefdae41bfa74a792340664736f6c63430006000033",
  "source": "// SPDX-License-Identifier: MIT\npragma solidity ^0.6.0;\npragma experimental ABIEncoderV2;\n\nimport \"@openzeppelin/contracts/token/ERC20/IERC20.sol\";\nimport \"@openzeppelin/contracts-upgradeable/proxy/utils/Initializable.sol\";\n\nimport './Interfaces/ILendingPool.sol';\nimport './Interfaces/IDataTypes.sol';\nimport './Interfaces/IMyContract.sol';\n\n/**\n * @title MyContractUpgraded - upgradeable Aave Protocol operations contract\n * @dev Deposit, Withdraw and Check Collateral Value in Aave Protocol\n * @author Tom Tsao\n */\ncontract MyContractUpgraded is IMyContract, Initializable {\n    ILendingPoolAddressesProvider addressProvider;\n    ILendingPool aaveLendingPool;\n    \n    address public owner;\n    address public addrProviderLP;\n    \n    // Initialize - set Aave Lending Pool and assign owner\n    function initialize(address _addressProvider) public initializer {\n        addressProvider = ILendingPoolAddressesProvider(_addressProvider);\n        addrProviderLP = addressProvider.getLendingPool();\n        aaveLendingPool = ILendingPool(addrProviderLP);\n        owner = msg.sender;\n    }\n\n    function deposit(address _erc20Contract, uint256 _amount) external override returns (bool success) {\n        success = IERC20(_erc20Contract).approve(addrProviderLP, _amount);\n        require(success == true, \"Deposit Failed\");\n\n        IERC20(_erc20Contract).transferFrom(owner, address(this), _amount);\n        aaveLendingPool.deposit(_erc20Contract, _amount, owner, 0);\n        \n        return success;\n    }\n\n    function withdraw(address _erc20Contract, uint256 _amount) external override returns (uint256 amountWithdrawn) {\n        ReserveData memory aTokenAddr = ILendingPool(aaveLendingPool).getReserveData(_erc20Contract);\n        IERC20(aTokenAddr.aTokenAddress).transferFrom(owner, address(this), _amount);\n\n        bool success = IERC20(aTokenAddr.aTokenAddress).approve(addrProviderLP, _amount);\n        require(success == true, \"Withdrawal Failed\");\n        aaveLendingPool.withdraw(_erc20Contract, _amount, owner);\n        \n        return _amount;\n    }\n\n    function checkCollateralValueInEth() external override view returns (uint256 amountInEth) {\n        uint256 totalCollateralETH;\n        uint256 totalDebtETH;\n        uint256 availableBorrowsETH;\n        uint256 currentLiquidationThreshold;\n        uint256 ltv;\n        uint256 healthFactor;\n        (\n            totalCollateralETH,\n            totalDebtETH,\n            availableBorrowsETH,\n            currentLiquidationThreshold,\n            ltv,\n            healthFactor\n        ) = aaveLendingPool.getUserAccountData(owner);\n\n        return totalCollateralETH;\n    }\n\n    // Upgrade - added extra function on top of original MyContract\n    function paused() external pure returns (bool) {\n        return false;\n    }\n}\n\n\n",
  "sourcePath": "/Users/tomtsaoao/Documents/job apps/Flurry Finance Take Home/aave-sc/contracts/MyContractUpgraded.sol",
  "compiler": {
    "name": "solc",
    "version": "0.6.0+commit.26b70077.Emscripten.clang"
  },
  "schemaVersion": "3.4.1",
  "updatedAt": "2021-05-18T12:27:30.852Z",
  "devdoc": {
    "author": "Tom Tsao",
    "details": "Deposit, Withdraw and Check Collateral Value in Aave Protocol",
    "methods": {},
    "title": "MyContractUpgraded - upgradeable Aave Protocol operations contract"
  },
  "userdoc": {
    "methods": {}
  }
}