{
  "contractName": "MyContract",
  "abi": [
    {
      "inputs": [],
      "name": "addrProviderLP",
      "outputs": [
        {
          "internalType": "address",
          "name": "",
          "type": "address"
        }
      ],
      "stateMutability": "view",
      "type": "function",
      "constant": true
    },
    {
      "inputs": [],
      "name": "owner",
      "outputs": [
        {
          "internalType": "address",
          "name": "",
          "type": "address"
        }
      ],
      "stateMutability": "view",
      "type": "function",
      "constant": true
    },
    {
      "inputs": [
        {
          "internalType": "address",
          "name": "_addressProvider",
          "type": "address"
        }
      ],
      "name": "initialize",
      "outputs": [],
      "stateMutability": "nonpayable",
      "type": "function"
    },
    {
      "inputs": [
        {
          "internalType": "address",
          "name": "_erc20Contract",
          "type": "address"
        },
        {
          "internalType": "uint256",
          "name": "_amount",
          "type": "uint256"
        }
      ],
      "name": "deposit",
      "outputs": [
        {
          "internalType": "bool",
          "name": "success",
          "type": "bool"
        }
      ],
      "stateMutability": "nonpayable",
      "type": "function"
    },
    {
      "inputs": [
        {
          "internalType": "address",
          "name": "_erc20Contract",
          "type": "address"
        },
        {
          "internalType": "uint256",
          "name": "_amount",
          "type": "uint256"
        }
      ],
      "name": "withdraw",
      "outputs": [
        {
          "internalType": "uint256",
          "name": "amountWithdrawn",
          "type": "uint256"
        }
      ],
      "stateMutability": "nonpayable",
      "type": "function"
    },
    {
      "inputs": [],
      "name": "checkCollateralValueInEth",
      "outputs": [
        {
          "internalType": "uint256",
          "name": "amountInEth",
          "type": "uint256"
        }
      ],
      "stateMutability": "view",
      "type": "function",
      "constant": true
    }
  ],
  "bytecode": "0x608060405234801561001057600080fd5b506113f1806100206000396000f3fe608060405234801561001057600080fd5b50600436106100625760003560e01c806347e7ef24146100675780637cc7f5df146100975780638da5cb5b146100b5578063c4d66de8146100d3578063eadf8f2c146100ef578063f3fef3a31461010d575b600080fd5b610081600480360361007c9190810190610e61565b61013d565b60405161008e91906111bb565b60405180910390f35b61009f6103a8565b6040516100ac9190611236565b60405180910390f35b6100bd6104a4565b6040516100ca91906110c4565b60405180910390f35b6100ed60048036036100e89190810190610e0f565b6104ca565b005b6100f761076a565b60405161010491906110c4565b60405180910390f35b61012760048036036101229190810190610e61565b610790565b6040516101349190611236565b60405180910390f35b60008273ffffffffffffffffffffffffffffffffffffffff1663095ea7b3600360009054906101000a900473ffffffffffffffffffffffffffffffffffffffff16846040518363ffffffff1660e01b815260040161019c929190611116565b602060405180830381600087803b1580156101b657600080fd5b505af11580156101ca573d6000803e3d6000fd5b505050506040513d601f19601f820116820180604052506101ee9190810190610e9d565b90506001151581151514610237576040517f08c379a000000000000000000000000000000000000000000000000000000000815260040161022e906111d6565b60405180910390fd5b8273ffffffffffffffffffffffffffffffffffffffff166323b872dd600260009054906101000a900473ffffffffffffffffffffffffffffffffffffffff1630856040518463ffffffff1660e01b8152600401610296939291906110df565b602060405180830381600087803b1580156102b057600080fd5b505af11580156102c4573d6000803e3d6000fd5b505050506040513d601f19601f820116820180604052506102e89190810190610e9d565b50600160009054906101000a900473ffffffffffffffffffffffffffffffffffffffff1673ffffffffffffffffffffffffffffffffffffffff1663e8eda9df8484600260009054906101000a900473ffffffffffffffffffffffffffffffffffffffff1660006040518563ffffffff1660e01b815260040161036d9493929190611176565b600060405180830381600087803b15801561038757600080fd5b505af115801561039b573d6000803e3d6000fd5b5050505080905092915050565b6000806000806000806000600160009054906101000a900473ffffffffffffffffffffffffffffffffffffffff1673ffffffffffffffffffffffffffffffffffffffff1663bf92857c600260009054906101000a900473ffffffffffffffffffffffffffffffffffffffff166040518263ffffffff1660e01b815260040161043091906110c4565b60c06040518083038186803b15801561044857600080fd5b505afa15801561045c573d6000803e3d6000fd5b505050506040513d601f19601f820116820180604052506104809190810190610f19565b809650819750829850839950849a50859b5050505050505085965050505050505090565b600260009054906101000a900473ffffffffffffffffffffffffffffffffffffffff1681565b600060019054906101000a900460ff16806104f157506000809054906101000a900460ff16155b610530576040517f08c379a0000000000000000000000000000000000000000000000000000000008152600401610527906111f6565b60405180910390fd5b60008060019054906101000a900460ff161590508015610580576001600060016101000a81548160ff02191690831515021790555060016000806101000a81548160ff0219169083151502179055505b81600060026101000a81548173ffffffffffffffffffffffffffffffffffffffff021916908373ffffffffffffffffffffffffffffffffffffffff160217905550600060029054906101000a900473ffffffffffffffffffffffffffffffffffffffff1673ffffffffffffffffffffffffffffffffffffffff16630261bf8b6040518163ffffffff1660e01b815260040160206040518083038186803b15801561062957600080fd5b505afa15801561063d573d6000803e3d6000fd5b505050506040513d601f19601f820116820180604052506106619190810190610e38565b600360006101000a81548173ffffffffffffffffffffffffffffffffffffffff021916908373ffffffffffffffffffffffffffffffffffffffff160217905550600360009054906101000a900473ffffffffffffffffffffffffffffffffffffffff16600160006101000a81548173ffffffffffffffffffffffffffffffffffffffff021916908373ffffffffffffffffffffffffffffffffffffffff16021790555033600260006101000a81548173ffffffffffffffffffffffffffffffffffffffff021916908373ffffffffffffffffffffffffffffffffffffffff16021790555080156107665760008060016101000a81548160ff0219169083151502179055505b5050565b600360009054906101000a900473ffffffffffffffffffffffffffffffffffffffff1681565b600061079a610adb565b600160009054906101000a900473ffffffffffffffffffffffffffffffffffffffff1673ffffffffffffffffffffffffffffffffffffffff166335ea6a75856040518263ffffffff1660e01b81526004016107f591906110c4565b6101806040518083038186803b15801561080e57600080fd5b505afa158015610822573d6000803e3d6000fd5b505050506040513d601f19601f820116820180604052506108469190810190610ec6565b90508060e0015173ffffffffffffffffffffffffffffffffffffffff166323b872dd600260009054906101000a900473ffffffffffffffffffffffffffffffffffffffff1630866040518463ffffffff1660e01b81526004016108ab939291906110df565b602060405180830381600087803b1580156108c557600080fd5b505af11580156108d9573d6000803e3d6000fd5b505050506040513d601f19601f820116820180604052506108fd9190810190610e9d565b5060008160e0015173ffffffffffffffffffffffffffffffffffffffff1663095ea7b3600360009054906101000a900473ffffffffffffffffffffffffffffffffffffffff16866040518363ffffffff1660e01b8152600401610961929190611116565b602060405180830381600087803b15801561097b57600080fd5b505af115801561098f573d6000803e3d6000fd5b505050506040513d601f19601f820116820180604052506109b39190810190610e9d565b905060011515811515146109fc576040517f08c379a00000000000000000000000000000000000000000000000000000000081526004016109f390611216565b60405180910390fd5b600160009054906101000a900473ffffffffffffffffffffffffffffffffffffffff1673ffffffffffffffffffffffffffffffffffffffff166369328dec8686600260009054906101000a900473ffffffffffffffffffffffffffffffffffffffff166040518463ffffffff1660e01b8152600401610a7d9392919061113f565b602060405180830381600087803b158015610a9757600080fd5b505af1158015610aab573d6000803e3d6000fd5b505050506040513d601f19601f82011682018060405250610acf9190810190610ef0565b50839250505092915050565b604051806101800160405280610aef610bfe565b815260200160006fffffffffffffffffffffffffffffffff16815260200160006fffffffffffffffffffffffffffffffff16815260200160006fffffffffffffffffffffffffffffffff16815260200160006fffffffffffffffffffffffffffffffff16815260200160006fffffffffffffffffffffffffffffffff168152602001600064ffffffffff168152602001600073ffffffffffffffffffffffffffffffffffffffff168152602001600073ffffffffffffffffffffffffffffffffffffffff168152602001600073ffffffffffffffffffffffffffffffffffffffff168152602001600073ffffffffffffffffffffffffffffffffffffffff168152602001600060ff1681525090565b6040518060200160405280600081525090565b600081359050610c2081611331565b92915050565b600081519050610c3581611331565b92915050565b600081519050610c4a81611348565b92915050565b600060208284031215610c6257600080fd5b610c6c6020611251565b90506000610c7c84828501610dd0565b60008301525092915050565b60006101808284031215610c9b57600080fd5b610ca6610180611251565b90506000610cb684828501610c50565b6000830152506020610cca84828501610da6565b6020830152506040610cde84828501610da6565b6040830152506060610cf284828501610da6565b6060830152506080610d0684828501610da6565b60808301525060a0610d1a84828501610da6565b60a08301525060c0610d2e84828501610de5565b60c08301525060e0610d4284828501610c26565b60e083015250610100610d5784828501610c26565b61010083015250610120610d6d84828501610c26565b61012083015250610140610d8384828501610c26565b61014083015250610160610d9984828501610dfa565b6101608301525092915050565b600081519050610db58161135f565b92915050565b600081359050610dca81611376565b92915050565b600081519050610ddf81611376565b92915050565b600081519050610df48161138d565b92915050565b600081519050610e09816113a4565b92915050565b600060208284031215610e2157600080fd5b6000610e2f84828501610c11565b91505092915050565b600060208284031215610e4a57600080fd5b6000610e5884828501610c26565b91505092915050565b60008060408385031215610e7457600080fd5b6000610e8285828601610c11565b9250506020610e9385828601610dbb565b9150509250929050565b600060208284031215610eaf57600080fd5b6000610ebd84828501610c3b565b91505092915050565b60006101808284031215610ed957600080fd5b6000610ee784828501610c88565b91505092915050565b600060208284031215610f0257600080fd5b6000610f1084828501610dd0565b91505092915050565b60008060008060008060c08789031215610f3257600080fd5b6000610f4089828a01610dd0565b9650506020610f5189828a01610dd0565b9550506040610f6289828a01610dd0565b9450506060610f7389828a01610dd0565b9350506080610f8489828a01610dd0565b92505060a0610f9589828a01610dd0565b9150509295509295509295565b610fab8161128f565b82525050565b610fba816112a1565b82525050565b610fc98161131f565b82525050565b6000610fdc600e8361127e565b91507f4465706f736974204661696c65640000000000000000000000000000000000006000830152602082019050919050565b600061101c602e8361127e565b91507f496e697469616c697a61626c653a20636f6e747261637420697320616c72656160008301527f647920696e697469616c697a65640000000000000000000000000000000000006020830152604082019050919050565b600061108260118361127e565b91507f5769746864726177616c204661696c65640000000000000000000000000000006000830152602082019050919050565b6110be816112f7565b82525050565b60006020820190506110d96000830184610fa2565b92915050565b60006060820190506110f46000830186610fa2565b6111016020830185610fa2565b61110e60408301846110b5565b949350505050565b600060408201905061112b6000830185610fa2565b61113860208301846110b5565b9392505050565b60006060820190506111546000830186610fa2565b61116160208301856110b5565b61116e6040830184610fa2565b949350505050565b600060808201905061118b6000830187610fa2565b61119860208301866110b5565b6111a56040830185610fa2565b6111b26060830184610fc0565b95945050505050565b60006020820190506111d06000830184610fb1565b92915050565b600060208201905081810360008301526111ef81610fcf565b9050919050565b6000602082019050818103600083015261120f8161100f565b9050919050565b6000602082019050818103600083015261122f81611075565b9050919050565b600060208201905061124b60008301846110b5565b92915050565b6000604051905081810181811067ffffffffffffffff8211171561127457600080fd5b8060405250919050565b600082825260208201905092915050565b600061129a826112d7565b9050919050565b60008115159050919050565b60006fffffffffffffffffffffffffffffffff82169050919050565b600061ffff82169050919050565b600073ffffffffffffffffffffffffffffffffffffffff82169050919050565b6000819050919050565b600064ffffffffff82169050919050565b600060ff82169050919050565b600061132a826112c9565b9050919050565b61133a8161128f565b811461134557600080fd5b50565b611351816112a1565b811461135c57600080fd5b50565b611368816112ad565b811461137357600080fd5b50565b61137f816112f7565b811461138a57600080fd5b50565b61139681611301565b81146113a157600080fd5b50565b6113ad81611312565b81146113b857600080fd5b5056fea26469706673582212201336606923c648cad6423710ce7604782c002919e2eb6469544887d5d54df00264736f6c63430006000033",
  "source": "// SPDX-License-Identifier: MIT\npragma solidity ^0.6.0;\npragma experimental ABIEncoderV2;\n\nimport \"@openzeppelin/contracts/token/ERC20/IERC20.sol\";\nimport \"@openzeppelin/contracts-upgradeable/proxy/utils/Initializable.sol\";\n\nimport './Interfaces/ILendingPool.sol';\nimport './Interfaces/IDataTypes.sol';\nimport './Interfaces/IMyContract.sol';\n\n/**\n * @title MyContract - Aave Protocol operations contract\n * @dev Deposit, Withdraw and Check Collateral Value in Aave Protocol\n * @author Tom Tsao\n */\ncontract MyContract is IMyContract, Initializable {\n    ILendingPoolAddressesProvider addressProvider;\n    ILendingPool aaveLendingPool;\n    \n    address public owner;\n    address public addrProviderLP;\n    \n    // Initialize - set Aave Lending Pool and assign owner\n    function initialize(address _addressProvider) public initializer {\n        addressProvider = ILendingPoolAddressesProvider(_addressProvider);\n        addrProviderLP = addressProvider.getLendingPool();\n        aaveLendingPool = ILendingPool(addrProviderLP);\n        owner = msg.sender;\n    }\n\n    function deposit(address _erc20Contract, uint256 _amount) external override returns (bool success) {\n        success = IERC20(_erc20Contract).approve(addrProviderLP, _amount);\n        require(success == true, \"Deposit Failed\");\n\n        IERC20(_erc20Contract).transferFrom(owner, address(this), _amount);\n        aaveLendingPool.deposit(_erc20Contract, _amount, owner, 0);\n        \n        return success;\n    }\n\n    function withdraw(address _erc20Contract, uint256 _amount) external override returns (uint256 amountWithdrawn) {\n        ReserveData memory aTokenAddr = ILendingPool(aaveLendingPool).getReserveData(_erc20Contract);\n        IERC20(aTokenAddr.aTokenAddress).transferFrom(owner, address(this), _amount);\n\n        bool success = IERC20(aTokenAddr.aTokenAddress).approve(addrProviderLP, _amount);\n        require(success == true, \"Withdrawal Failed\");\n        aaveLendingPool.withdraw(_erc20Contract, _amount, owner);\n\n        return _amount;\n    }\n\n    function checkCollateralValueInEth() external override view returns (uint256 amountInEth) {\n        uint256 totalCollateralETH;\n        uint256 totalDebtETH;\n        uint256 availableBorrowsETH;\n        uint256 currentLiquidationThreshold;\n        uint256 ltv;\n        uint256 healthFactor;\n        (\n            totalCollateralETH,\n            totalDebtETH,\n            availableBorrowsETH,\n            currentLiquidationThreshold,\n            ltv,\n            healthFactor\n        ) = aaveLendingPool.getUserAccountData(owner);\n\n        return totalCollateralETH;\n    }\n}\n\n\n",
  "sourcePath": "/Users/tomtsaoao/Documents/job apps/Flurry Finance Take Home/aave-sc/contracts/MyContract.sol",
  "compiler": {
    "name": "solc",
    "version": "0.6.0+commit.26b70077.Emscripten.clang"
  },
  "schemaVersion": "3.4.1",
  "updatedAt": "2021-05-18T12:27:50.059Z",
  "networkType": "ethereum",
  "devdoc": {
    "author": "Tom Tsao",
    "details": "Deposit, Withdraw and Check Collateral Value in Aave Protocol",
    "methods": {},
    "title": "MyContract - Aave Protocol operations contract"
  },
  "userdoc": {
    "methods": {}
  }
}